{
  "_format": "hh-sol-artifact-1",
  "contractName": "Counter",
  "sourceName": "contracts/Counter.sol",
  "abi": [
    {
      "inputs": [],
      "name": "count",
      "outputs": [
        {
          "internalType": "uint256",
          "name": "",
          "type": "uint256"
        }
      ],
      "stateMutability": "view",
      "type": "function"
    },
    {
      "inputs": [],
      "name": "decrement",
      "outputs": [],
      "stateMutability": "nonpayable",
      "type": "function"
    },
    {
      "inputs": [],
      "name": "increment",
      "outputs": [],
      "stateMutability": "nonpayable",
      "type": "function"
    }
  ],
  "bytecode": "0x608060405234801561001057600080fd5b506101c5806100206000396000f3fe608060405234801561001057600080fd5b50600436106100415760003560e01c806306661abd146100465780632baeceb714610064578063d09de08a1461006e575b600080fd5b61004e610078565b60405161005b91906100d4565b60405180910390f35b61006c61007e565b005b6100766100a2565b005b60005481565b6000805411156100a05760008081548092919061009a9061011e565b91905055505b565b6000808154809291906100b490610147565b9190505550565b6000819050919050565b6100ce816100bb565b82525050565b60006020820190506100e960008301846100c5565b92915050565b7f4e487b7100000000000000000000000000000000000000000000000000000000600052601160045260246000fd5b6000610129826100bb565b91506000820361013c5761013b6100ef565b5b600182039050919050565b6000610152826100bb565b91507fffffffffffffffffffffffffffffffffffffffffffffffffffffffffffffffff8203610184576101836100ef565b5b60018201905091905056fea26469706673582212200309992e500c0f05051dd89826747c533fdf6d780790858d8fe99ee8944436df64736f6c63430008120033",
  "linkReferences": {},
  "deployedLinkReferences": {}
}